{
  "contractName": "Salt",
  "abi": [
    {
      "constant": true,
      "inputs": [],
      "name": "name",
      "outputs": [
        {
          "name": "",
          "type": "string"
        }
      ],
      "payable": false,
      "stateMutability": "view",
      "type": "function"
    },
    {
      "constant": true,
      "inputs": [],
      "name": "totalSupply",
      "outputs": [
        {
          "name": "",
          "type": "uint256"
        }
      ],
      "payable": false,
      "stateMutability": "view",
      "type": "function"
    },
    {
      "constant": true,
      "inputs": [],
      "name": "decimals",
      "outputs": [
        {
          "name": "",
          "type": "uint8"
        }
      ],
      "payable": false,
      "stateMutability": "view",
      "type": "function"
    },
    {
      "constant": true,
      "inputs": [],
      "name": "version",
      "outputs": [
        {
          "name": "",
          "type": "string"
        }
      ],
      "payable": false,
      "stateMutability": "view",
      "type": "function"
    },
    {
      "constant": true,
      "inputs": [],
      "name": "symbol",
      "outputs": [
        {
          "name": "",
          "type": "string"
        }
      ],
      "payable": false,
      "stateMutability": "view",
      "type": "function"
    },
    {
      "inputs": [],
      "payable": false,
      "stateMutability": "nonpayable",
      "type": "constructor"
    },
    {
      "payable": false,
      "stateMutability": "nonpayable",
      "type": "fallback"
    },
    {
      "anonymous": false,
      "inputs": [
        {
          "indexed": true,
          "name": "_from",
          "type": "address"
        },
        {
          "indexed": true,
          "name": "_to",
          "type": "address"
        },
        {
          "indexed": false,
          "name": "_value",
          "type": "uint256"
        }
      ],
      "name": "Transfer",
      "type": "event"
    },
    {
      "anonymous": false,
      "inputs": [
        {
          "indexed": true,
          "name": "_owner",
          "type": "address"
        },
        {
          "indexed": true,
          "name": "_spender",
          "type": "address"
        },
        {
          "indexed": false,
          "name": "_value",
          "type": "uint256"
        }
      ],
      "name": "Approval",
      "type": "event"
    },
    {
      "constant": true,
      "inputs": [
        {
          "name": "_owner",
          "type": "address"
        }
      ],
      "name": "balanceOf",
      "outputs": [
        {
          "name": "balance",
          "type": "uint256"
        }
      ],
      "payable": false,
      "stateMutability": "view",
      "type": "function"
    },
    {
      "constant": false,
      "inputs": [
        {
          "name": "_to",
          "type": "address"
        },
        {
          "name": "_value",
          "type": "uint256"
        }
      ],
      "name": "transfer",
      "outputs": [
        {
          "name": "success",
          "type": "bool"
        }
      ],
      "payable": false,
      "stateMutability": "nonpayable",
      "type": "function"
    },
    {
      "constant": false,
      "inputs": [
        {
          "name": "_from",
          "type": "address"
        },
        {
          "name": "_to",
          "type": "address"
        },
        {
          "name": "_value",
          "type": "uint256"
        }
      ],
      "name": "transferFrom",
      "outputs": [
        {
          "name": "success",
          "type": "bool"
        }
      ],
      "payable": false,
      "stateMutability": "nonpayable",
      "type": "function"
    },
    {
      "constant": false,
      "inputs": [
        {
          "name": "_spender",
          "type": "address"
        },
        {
          "name": "_value",
          "type": "uint256"
        }
      ],
      "name": "approve",
      "outputs": [
        {
          "name": "success",
          "type": "bool"
        }
      ],
      "payable": false,
      "stateMutability": "nonpayable",
      "type": "function"
    },
    {
      "constant": true,
      "inputs": [
        {
          "name": "_owner",
          "type": "address"
        },
        {
          "name": "_spender",
          "type": "address"
        }
      ],
      "name": "allowance",
      "outputs": [
        {
          "name": "remaining",
          "type": "uint256"
        }
      ],
      "payable": false,
      "stateMutability": "view",
      "type": "function"
    }
  ],
  "bytecode": "0x60606040526040805190810160405280600381526020017f312e3000000000000000000000000000000000000000000000000000000000008152506006908051906020019061004f92919061016d565b50341561005b57600080fd5b662aa1efb94e0000600160003373ffffffffffffffffffffffffffffffffffffffff1673ffffffffffffffffffffffffffffffffffffffff16815260200190815260200160002081905550662aa1efb94e00006000819055506040805190810160405280600481526020017f53616c7400000000000000000000000000000000000000000000000000000000815250600390805190602001906100ff92919061016d565b506008600460006101000a81548160ff021916908360ff1602179055506040805190810160405280600481526020017f53414c54000000000000000000000000000000000000000000000000000000008152506005908051906020019061016792919061016d565b50610212565b828054600181600116156101000203166002900490600052602060002090601f016020900481019282601f106101ae57805160ff19168380011785556101dc565b828001600101855582156101dc579182015b828111156101db5782518255916020019190600101906101c0565b5b5090506101e991906101ed565b5090565b61020f91905b8082111561020b5760008160009055506001016101f3565b5090565b90565b610c62806102216000396000f3006060604052600436106100a4576000357c0100000000000000000000000000000000000000000000000000000000900463ffffffff16806306fdde03146100b4578063095ea7b31461014257806318160ddd1461019c57806323b872dd146101c5578063313ce5671461023e57806354fd4d501461026d57806370a08231146102fb57806395d89b4114610348578063a9059cbb146103d6578063dd62ed3e14610430575b34156100af57600080fd5b600080fd5b34156100bf57600080fd5b6100c761049c565b6040518080602001828103825283818151815260200191508051906020019080838360005b838110156101075780820151818401526020810190506100ec565b50505050905090810190601f1680156101345780820380516001836020036101000a031916815260200191505b509250505060405180910390f35b341561014d57600080fd5b610182600480803573ffffffffffffffffffffffffffffffffffffffff1690602001909190803590602001909190505061053a565b604051808215151515815260200191505060405180910390f35b34156101a757600080fd5b6101af61062c565b6040518082815260200191505060405180910390f35b34156101d057600080fd5b610224600480803573ffffffffffffffffffffffffffffffffffffffff1690602001909190803573ffffffffffffffffffffffffffffffffffffffff16906020019091908035906020019091905050610632565b604051808215151515815260200191505060405180910390f35b341561024957600080fd5b6102516108ae565b604051808260ff1660ff16815260200191505060405180910390f35b341561027857600080fd5b6102806108c1565b6040518080602001828103825283818151815260200191508051906020019080838360005b838110156102c05780820151818401526020810190506102a5565b50505050905090810190601f1680156102ed5780820380516001836020036101000a031916815260200191505b509250505060405180910390f35b341561030657600080fd5b610332600480803573ffffffffffffffffffffffffffffffffffffffff1690602001909190505061095f565b6040518082815260200191505060405180910390f35b341561035357600080fd5b61035b6109a8565b6040518080602001828103825283818151815260200191508051906020019080838360005b8381101561039b578082015181840152602081019050610380565b50505050905090810190601f1680156103c85780820380516001836020036101000a031916815260200191505b509250505060405180910390f35b34156103e157600080fd5b610416600480803573ffffffffffffffffffffffffffffffffffffffff16906020019091908035906020019091905050610a46565b604051808215151515815260200191505060405180910390f35b341561043b57600080fd5b610486600480803573ffffffffffffffffffffffffffffffffffffffff1690602001909190803573ffffffffffffffffffffffffffffffffffffffff16906020019091905050610baf565b6040518082815260200191505060405180910390f35b60038054600181600116156101000203166002900480601f0160208091040260200160405190810160405280929190818152602001828054600181600116156101000203166002900480156105325780601f1061050757610100808354040283529160200191610532565b820191906000526020600020905b81548152906001019060200180831161051557829003601f168201915b505050505081565b600081600260003373ffffffffffffffffffffffffffffffffffffffff1673ffffffffffffffffffffffffffffffffffffffff16815260200190815260200160002060008573ffffffffffffffffffffffffffffffffffffffff1673ffffffffffffffffffffffffffffffffffffffff168152602001908152602001600020819055508273ffffffffffffffffffffffffffffffffffffffff163373ffffffffffffffffffffffffffffffffffffffff167f8c5be1e5ebec7d5bd14f71427d1e84f3dd0314c0f7b2291e5b200ac8c7c3b925846040518082815260200191505060405180910390a36001905092915050565b60005481565b600081600160008673ffffffffffffffffffffffffffffffffffffffff1673ffffffffffffffffffffffffffffffffffffffff16815260200190815260200160002054101580156106ff575081600260008673ffffffffffffffffffffffffffffffffffffffff1673ffffffffffffffffffffffffffffffffffffffff16815260200190815260200160002060003373ffffffffffffffffffffffffffffffffffffffff1673ffffffffffffffffffffffffffffffffffffffff1681526020019081526020016000205410155b801561070b5750600082115b156108a25781600160008573ffffffffffffffffffffffffffffffffffffffff1673ffffffffffffffffffffffffffffffffffffffff1681526020019081526020016000206000828254019250508190555081600160008673ffffffffffffffffffffffffffffffffffffffff1673ffffffffffffffffffffffffffffffffffffffff1681526020019081526020016000206000828254039250508190555081600260008673ffffffffffffffffffffffffffffffffffffffff1673ffffffffffffffffffffffffffffffffffffffff16815260200190815260200160002060003373ffffffffffffffffffffffffffffffffffffffff1673ffffffffffffffffffffffffffffffffffffffff168152602001908152602001600020600082825403925050819055508273ffffffffffffffffffffffffffffffffffffffff168473ffffffffffffffffffffffffffffffffffffffff167fddf252ad1be2c89b69c2b068fc378daa952ba7f163c4a11628f55a4df523b3ef846040518082815260200191505060405180910390a3600190506108a7565b600090505b9392505050565b600460009054906101000a900460ff1681565b60068054600181600116156101000203166002900480601f0160208091040260200160405190810160405280929190818152602001828054600181600116156101000203166002900480156109575780601f1061092c57610100808354040283529160200191610957565b820191906000526020600020905b81548152906001019060200180831161093a57829003601f168201915b505050505081565b6000600160008373ffffffffffffffffffffffffffffffffffffffff1673ffffffffffffffffffffffffffffffffffffffff168152602001908152602001600020549050919050565b60058054600181600116156101000203166002900480601f016020809104026020016040519081016040528092919081815260200182805460018160011615610100020316600290048015610a3e5780601f10610a1357610100808354040283529160200191610a3e565b820191906000526020600020905b815481529060010190602001808311610a2157829003601f168201915b505050505081565b600081600160003373ffffffffffffffffffffffffffffffffffffffff1673ffffffffffffffffffffffffffffffffffffffff1681526020019081526020016000205410158015610a975750600082115b15610ba45781600160003373ffffffffffffffffffffffffffffffffffffffff1673ffffffffffffffffffffffffffffffffffffffff1681526020019081526020016000206000828254039250508190555081600160008573ffffffffffffffffffffffffffffffffffffffff1673ffffffffffffffffffffffffffffffffffffffff168152602001908152602001600020600082825401925050819055508273ffffffffffffffffffffffffffffffffffffffff163373ffffffffffffffffffffffffffffffffffffffff167fddf252ad1be2c89b69c2b068fc378daa952ba7f163c4a11628f55a4df523b3ef846040518082815260200191505060405180910390a360019050610ba9565b600090505b92915050565b6000600260008473ffffffffffffffffffffffffffffffffffffffff1673ffffffffffffffffffffffffffffffffffffffff16815260200190815260200160002060008373ffffffffffffffffffffffffffffffffffffffff1673ffffffffffffffffffffffffffffffffffffffff168152602001908152602001600020549050929150505600a165627a7a723058203b5d7a073fd367ca0cc48691689b1c87ba5d0a6913122857b619bb07b5695b8c0029",
  "source": " pragma solidity ^0.4.8;\n\n\ncontract Token {\n    uint256 public totalSupply;\n\n    function balanceOf(address _owner) constant returns (uint256 balance);\n\n    function transfer(address _to, uint256 _value) returns (bool success);\n\n    function transferFrom(address _from, address _to, uint256 _value) returns (bool success);\n\n    function approve(address _spender, uint256 _value) returns (bool success);\n\n    function allowance(address _owner, address _spender) constant returns (uint256 remaining);\n\n    event Transfer(address indexed _from, address indexed _to, uint256 _value);\n    event Approval(address indexed _owner, address indexed _spender, uint256 _value);\n}\n\n\ncontract StandardToken is Token {\n    //these arguments are spread operator params\n    function transfer(address _to, uint256 _value) returns (bool success) {\n        if (balances[msg.sender] >= _value && _value > 0) {\n            balances[msg.sender] -= _value;\n            balances[_to] += _value;\n            Transfer(msg.sender, _to, _value);\n            return true;\n        } else { return false; }\n    }\n\n    function transferFrom(address _from, address _to, uint256 _value) returns (bool success) {\n        if (balances[_from] >= _value && allowed[_from][msg.sender] >= _value && _value > 0) {\n            balances[_to] += _value;\n            balances[_from] -= _value;\n            allowed[_from][msg.sender] -= _value;\n            Transfer(_from, _to, _value);\n            return true;\n        } else { return false; }\n    }\n\n    function balanceOf(address _owner) constant returns (uint256 balance) {\n        return balances[_owner];\n    }\n\n    function approve(address _spender, uint256 _value) returns (bool success) {\n        allowed[msg.sender][_spender] = _value;\n        Approval(msg.sender, _spender, _value);\n        return true;\n    }\n\n    function allowance(address _owner, address _spender) constant returns (uint256 remaining) {\n      return allowed[_owner][_spender];\n    }\n\n    mapping (address => uint256) balances;\n    mapping (address => mapping (address => uint256)) allowed;\n}\n\ncontract Salt is StandardToken {\n\n    function () {\n        throw;\n    }\n\n    string public name;\n    uint8 public decimals;\n    string public symbol;\n    string public version = '1.0';\n\n    function Salt() {\n        balances[msg.sender] = 12000000000000000;               // Give the creator all initial tokens\n        totalSupply = 12000000000000000;                        // Update total supply\n        name = 'Salt';                                   // Set the name for display purposes\n        decimals = 8;                            // Amount of decimals for display purposes\n        symbol = 'SALT';                               // Set the symbol for display purposes\n    }\n}",
  "sourcePath": "/Users/LVC/workspace/IBN/truffle_workspace/contracts/Salt.sol",
  "compiler": {
    "name": "solc",
    "version": "0.4.19+commit.c4cbbb05.Emscripten.clang"
  },
  "schemaVersion": "1.0.1",
  "updatedAt": "2018-02-08T20:18:30.679Z"
}